:020000040800F2
:1000000000000220CD080008D1070008D30700082F
:10001000D5070008D7070008D9070008000000002E
:10002000000000000000000000000000DB070008E6
:10003000DD07000800000000DF070008E1070008F6
:100040001D0900081D0900081D0900081D090008F8
:100050001D0900081D090008E9070008F30700084A
:100060001D0900081D0900081D0900081D090008D8
:100070001D0900081D0900081D0900081D090008C8
:100080001D0900081D0900081D0900081D090008B8
:100090001D0900081D0900081D0900081D090008A8
:1000A0001D0900081D0900081D0900081D09000898
:1000B0001D0900081D090008FD0700081D090008AA
:1000C0001D0900081D0900081D0900081D09000878
:1000D0001D0900081D0900081D0900081D09000868
:1000E0000D0800081D0900081D0900081D09000869
:1000F0001D0900081D0900081D0900081D09000848
:100100001D0900081D0900081D0900081D09000837
:100110001D0900081D0900081D0900081D09000827
:100120001D0900081D0900081D0900081D09000817
:100130001D09000800000000000000001D09000863
:100140001D0900081D0900081D0900081D090008F7
:100150001D0900081D0900081D0900081D090008E7
:100160001D0900081D0900081D0900081D090008D7
:100170001D0900081D090008000000000000000023
:080180001D0900081D0900081B
:1001880010B5054C237833B9044B13B10448AFF3C9
:1001980000800123237010BD3C04002000000000F3
:1001A800241A000808B5034B1BB103490348AFF3F1
:1001B800008008BD0000000040040020241A000848
:1001C80053B94AB9002908BF00281CBF4FF0FF31B6
:1001D8004FF0FF3000F074B9ADF1080C6DE904CEB2
:1001E80000F006F8DDF804E0DDE9022304B070470A
:1001F8002DE9F047089E0D4604468846002B4DD150
:100208008A42944668D9B2FA82F252B101FA02F3EC
:10021800C2F1200120FA01F10CFA02FC41EA0308BC
:1002280094404FEA1C45210CB8FBF5FE1FFA8CF7E9
:1002380005FB1E8341EA03430EFB07F199420BD9E4
:100248001CEB03030EF1FF3080F01E81994240F24F
:100258001B81AEF1020E63445B1AA4B2B3FBF5F046
:1002680005FB103344EA034400FB07F7A7420AD909
:100278001CEB040400F1FF3380F00881A74240F230
:10028800058164440238E41B40EA0E4000211EB197
:10029800D4400023C6E90043BDE8F0878B4208D963
:1002A800002E00F0EE800021C6E900050846BDE8F2
:1002B800F087B3FA83F100294AD1AB4202D38242D4
:1002C80000F2F980841A65EB030301209846002E9A
:1002D800E2D0C6E90048DFE702B9FFDEB2FA82F2EF
:1002E800002A40F09180A1EB0C054FEA1C471FFA49
:1002F8008CFE0121B5FBF7F307FB1350250C45EAEB
:1003080000450EFB03F0A84208D91CEB050503F1D4
:10031800FF3802D2A84200F2CB8043462D1AA4B27D
:10032800B5FBF7F007FB105544EA05440EFB00FE49
:10033800A64508D91CEB040400F1FF3502D2A645F6
:1003480000F2BB802846A4EB0E0440EA03409EE777
:10035800C1F120078B4022FA07FC4CEA030C20FA73
:1003680007F405FA01F31C43FD404FEA1C4900FA63
:1003780001F3B5FBF9F8200C1FFA8CFE09FB1855A0
:1003880040EA054508FB0EF0A84202FA01F20BD933
:100398001CEB050508F1FF3A80F08880A84240F27E
:1003A8008580A8F1020865442D1AA4B2B5FBF9F0BE
:1003B80009FB105544EA054500FB0EFEAE4508D979
:1003C8001CEB050500F1FF346CD2AE456AD9023842
:1003D800654440EA0840A0FB0294A5EB0E05A5423F
:1003E800C846A64656D353D05EB1B3EB080265EBB8
:1003F8000E0505FA07F722FA01F3CD401F43C6E9B7
:1004080000750021BDE8F087C2F1200320FA03F14E
:100418000CFA02FC25FA03F395400D434FEA1C47FA
:100428001FFA8CFEB3FBF7F107FB11302B0C43EAE4
:10043800004301FB0EF0984204FA02F408D91CEBC1
:10044800030301F1FF382FD298422DD902396344B2
:100458001B1AADB2B3FBF7F007FB103345EA0345AF
:1004680000FB0EF3AB4208D91CEB050500F1FF3881
:1004780016D2AB4214D902386544ED1A40EA01415C
:1004880038E73146304607E78646E5E61846FAE695
:100498004B45A9D2B9EB020864EB0C0E0138A3E76F
:1004A8004046EAE7204694E74146D1E7D0467BE755
:1004B800023B654432E7084609E76444023842E7EC
:1004C800704700BFF0B58BB00024059406940794DC
:1004D800089409940194364B1A6B42F004021A638B
:1004E8001A6B02F004020192019A02941A6B42F00C
:1004F80080021A631A6B02F080020292029A039435
:100508001A6B42F002021A631A6B02F0020203929B
:10051800039A04941A6B42F001021A631B6B03F0EE
:1005280001030493049B234E22460121304600F028
:10053800B7FB01224FF48051304600F0B1FB42F284
:10054800030305934FF488130693079405A91A48E3
:1005580000F0B4FA0125059506950794089505A9B4
:10056800304600F0ABFA4FF4805305930695079494
:100578000227089705A9304600F0A0FA2246394616
:10058800062000F041FA062000F076FA22463946A5
:10059800072000F039FA072000F06EFA22462946B3
:1005A800282000F031FA282000F066FA0BB0F0BDE0
:1005B80000380240000402400008024072B6FEE71C
:1005C80000B595B03022002108A801F065F9002394
:1005D800039304930593069307930193204A116CA0
:1005E80041F080511164126C02F080520192019A1C
:1005F80002931C4B1A6842F480421A601B6803F489
:1006080080430293029B012308934FF4803309939C
:1006180002220E924FF480030F9304231093A82113
:1006280011911292139308A800F050FB98B90F2368
:10063800039302230493002305934FF4A0530693D6
:100648004FF480530793052103A800F0A5FD20B9B6
:1006580015B05DF804FBFFF7B1FFFFF7AFFF00BF70
:10066800003802400070004008B500F07BF9FFF741
:10067800A7FFFFF727FF00F019F800F0CBF80A4CA6
:1006880001221146204600F00BFB4FF47A7000F06F
:1006980095F900220121204600F002FB4FF47A7000
:1006A80000F08CF9EBE700BF0004024008B50D48E4
:1006B8000D4B03604FF48273436000238360C36073
:1006C800036143614FF400728261C3610362436254
:1006D80083620A23C36200F00FFE00B908BDFFF76A
:1006E8006DFFFBE75804002000380040F0B589B0E2
:1006F80000230393049305930693079302681F4B03
:100708009A4201D009B0F0BD0024009403F50033EB
:100718001A6C42F480421A641A6C02F48042009205
:10072800009A01941A6B42F004021A631A6B02F0E1
:1007380004020192019A02941A6B42F002021A63AF
:100748001B6B03F002030293029B0C230393022703
:10075800049703260696052507950DEB030108481F
:1007680000F0ACF94FF400530393049705940696F0
:10077800079503A9034800F0A1F9C3E70038004032
:10078800000802400004024000B583B00021009137
:100798000C4B5A6C42F480425A645A6C02F4804200
:1007A8000092009A01911A6C42F080521A641B6CF4
:1007B80003F080530193019B052000F013F903B067
:1007C8005DF804FB00380240FEE7FEE7FEE7FEE7BF
:1007D800FEE770477047704708B500F0DDF808BDC0
:1007E80008B5012000F064FA08BD08B5022000F041
:1007F8005FFA08BD08B5024800F00FFE08BD00BF4B
:10080800B004002008B54FF4005000F051FA08BDBC
:100818007047000000B587B0002302930393049348
:100828000593009301931548154A0260112242600E
:10083800836040F2E732C2600361836100F008FF21
:1008480090B94FF48053029302A90C4800F038FF86
:1008580068B90023009301936946084800F0B0FF87
:1008680040B907B05DF804FBFFF7A8FEE9E7FFF71A
:10087800A5FEEEE7FFF7A2FEF3E700BFB0040020F5
:100888000008004002680E4B9A4200D0704700B53D
:1008980083B00022019203F50C33196C41F0040176
:1008A80019641B6C03F004030193019B01211E20B2
:1008B80000F0AAF81E2000F0DFF803B05DF804FB92
:1008C80000080040DFF834D0FFF7A2FF0C480D49BC
:1008D8000D4A002302E0D458C4500433C4188C4293
:1008E800F9D30A4A0A4C002301E013600432A242F9
:1008F800FBD300F0ADFFFFF7B7FE70470000022002
:10090800000000203C040020641A00083C04002079
:1009180000050020FEE7000010B504460E4B1878CD
:100928004FF47A73B3FBF0F30C4A1068B0FBF3F0A2
:1009380000F0B0F868B90F2C01D901200AE00022B4
:1009480021464FF0FF3000F05FF8054B1C60002097
:1009580000E0012010BD00BF0400002000000020BE
:100968000800002008B50B4B1A6842F400721A60A0
:100978001A6842F480621A601A6842F480721A6037
:10098800032000F02FF80320FFF7C6FFFFF7FCFE57
:10099800002008BD003C0240034A1168034B1B7845
:1009A8000B441360704700BFF804002004000020C7
:1009B800014B1868704700BFF804002038B504469A
:1009C800FFF7F6FF0546B4F1FF3F02D0044B1B7852
:1009D8001C44FFF7EDFF401BA042FAD338BD00BF0F
:1009E80004000020074AD36823F4E0631B041B0CAF
:1009F800000200F4E060034343F0BF6343F40033B4
:100A0800D360704700ED00E000B5194BDB68C3F315
:100A18000223C3F1070CBCF1040F28BF4FF0040CEC
:100A280003F1040EBEF1060F18D9033B4FF0FF3E49
:100A38000EFA0CFC21EA0C0199400EFA03F322EAA3
:100A48000303194300280BDB0901C9B200F1604018
:100A580000F5614080F800135DF804FB0023E5E72A
:100A680000F00F000901C9B2024B1954F4E700BFA6
:100A780000ED00E014ED00E0002807DB00F01F02A5
:100A8800400901239340024A42F82030704700BFD2
:100A980000E100E00138B0F1807F0BD24FF0E02395
:100AA8005861054AF02182F8231000209861072236
:100AB8001A6170470120704700ED00E000230F2BFA
:100AC80000F2E48070B582B060E085685E000324BF
:100AD800B44025EA0405CC68B4402C4384604568DA
:100AE80025EA02054C68C4F300129A402A43426082
:100AF8005AE0DC08083450F8246003F00702950037
:100B08000F22AA4026EA020E0A69AA4042EA0E0209
:100B180040F824205CE0072200E0002202FA0EF2EE
:100B28002A4302345A4D45F824205A4A94686FEAF9
:100B38000C0224EA0C054E6816F4801F01D04CEA1A
:100B48000405544CA560E46802EA04054E6816F4EE
:100B5800001F01D04CEA04054E4CE560646802EAC7
:100B680004054E6816F4003F01D04CEA0405494CD0
:100B78006560246822404D6815F4803F01D04CEA36
:100B88000402444C226001330F2B7DD801229A4085
:100B98000C6804EA020C32EA0404F4D14C6804F04C
:100BA8000304013C012C90D94A6802F00302032A8D
:100BB80009D0C4685D000322AA4024EA02048A68B6
:100BC800AA402243C2604A6802F00302022A90D077
:100BD80004684FEA430E032202FA0EF224EA0204E2
:100BE8004A6802F0030202FA0EF2224302604A68DF
:100BF80012F4403FC7D000220192274A546C44F4B3
:100C080080445464526C02F480420192019A9C0818
:100C1800A51C1F4A52F8255003F003024FEA820E22
:100C28000F2202FA0EF225EA02051C4A90423FF40E
:100C380074AF02F5806290421AD002F58062904249
:100C480018D002F58062904216D002F58062904278
:100C580014D002F58062904212D002F58062904270
:100C680010D002F5806290423FF455AF082255E754
:100C7800012253E7022251E703224FE704224DE7FE
:100C880005224BE7062249E702B070BD704700BF56
:100C980000380140003C014000380240000002409A
:100CA8000AB181617047090481617047704700008B
:100CB80008B5054B5B69034200D108BD024B58617A
:100CC800FFF7F4FFF9E700BF003C0140002800F0FF
:100CD800E08170B582B00446036813F0010F3BD081
:100CE8009F4B9B6803F00C03042B2CD09C4B9B68F8
:100CF80003F00C03082B21D06368B3F5803F4FD075
:100D0800B3F5A02F52D0964B1A6822F480321A609D
:100D18001A6822F480221A606368002B50D0FFF70B
:100D280047FE05468E4B1B6813F4003F14D1FFF7AE
:100D38003FFE401B6428F5D90320B1E1884B5B686E
:100D480013F4800FD8D0864B1B6813F4003F03D0F0
:100D58006368002B00F09F81236813F0020F54D0C2
:100D68007F4B9B6813F00C0F3ED07D4B9B6803F0C4
:100D78000C03082B33D0E368002B68D0794B012291
:100D88001A60FFF715FE0546754B1B6813F0020F36
:100D980054D1FFF70DFE401B0228F5D903207FE14F
:100DA8006F4A136843F480331360B5E76C4B1A68D5
:100DB80042F480221A601A6842F480321A60ABE763
:100DC800FFF7F6FD0546664B1B6813F4003FC3D0DA
:100DD800FFF7EEFD401B6428F5D9032060E1604B66
:100DE8005B6813F4800FC6D15D4B1B6813F0020FCC
:100DF80003D0E368012B40F05081594A136823F06F
:100E0800F803216943EAC1031360236813F0080F4C
:100E180042D063696BB3534B0122C3F8802EFFF7AE
:100E2800C7FD05464E4B5B6F13F0020F34D1FFF739
:100E3800BFFD401B0228F5D9032031E1484A136859
:100E480023F0F803216943EAC1031360DDE7454B4A
:100E580000221A60FFF7ACFD0546414B1B6813F0F2
:100E6800020FD2D0FFF7A4FD401B0228F5D90320BA
:100E780016E13C4B0022C3F8802EFFF799FD05468A
:100E8800374B5B6F13F0020F06D0FFF791FD401B45
:100E98000228F5D9032003E1236813F0040F77D063
:100EA8002F4B1B6C13F0805F33D1002301932C4B25
:100EB8001A6C42F080521A641B6C03F08053019341
:100EC800019B0125284B1B6813F4807F23D0A3685E
:100ED800012B34D0052B38D0214B1A6F22F0010298
:100EE8001A671A6F22F004021A67A368002B3DD014
:100EF800FFF75EFD06461A4B1B6F13F0020F46D133
:100F0800FFF756FD801B41F288339842F3D903203E
:100F1800C6E00025D6E7144A136843F480731360CB
:100F2800FFF746FD0646104B1B6813F4807FCED1B1
:100F3800FFF73EFD801B0228F5D90320B0E0084AE0
:100F4800136F43F001031367CFE7054B1A6F42F0A5
:100F580004021A671A6F42F001021A67C5E700BF58
:100F6800003802400000474200700040FFF720FDB3
:100F78000646524B1B6F13F0020F08D0FFF718FDFF
:100F8800801B41F288339842F3D9032088E0EDB9F9
:100F9800A369002B00F08380484A926802F00C0293
:100FA800082A51D0022B17D0454B00221A66FFF7AA
:100FB800FFFC0446414B1B6813F0007F42D0FFF74B
:100FC800F7FC001B0228F5D9032069E03B4A136CA3
:100FD80023F080531364DBE7394B00221A66FFF7CE
:100FE800E7FC0546354B1B6813F0007F06D0FFF77A
:100FF800DFFC401B0228F5D9032051E0E369226A8F
:101008001343626A43EA8213A26A5208013A43EA26
:101018000243E26A43EA0263284A5360284B0122EA
:101028001A66FFF7C5FC0446244B1B6813F0007FC3
:1010380006D1FFF7BDFC001B0228F5D903202FE0DD
:1010480000202DE000202BE0012B2BD01B4B5B68F0
:1010580003F48001E269914226D103F03F02216A3C
:101068008A4223D1616A47F6C0721A40B2EB811FE7
:101078001ED103F44031A26A5208013AB1EB024F83
:1010880018D103F07063E26AB3EB026F14D1002049
:1010980006E001207047012002E0012000E0002066
:1010A80002B070BD0120FBE70120F9E70120F7E756
:1010B8000120F5E70120F3E70120F1E700380240BD
:1010C8000000474208B5314B9B6803F00C03042B22
:1010D80057D0082B57D12D4B5A6802F03F025B6856
:1010E80013F4800F2AD0294B5968C1F3881C4FEAA2
:1010F8004C11B1EB0C006EEB0E0E4FEA8E1343EA67
:1011080090638101091A63EB0E03DB0043EA517314
:10111800C90011EB0C0C43F10003590200234FEAFC
:101128004C2041EADC51FFF74BF8184B5B68C3F3DE
:10113800014301335B00B0FBF3F025E0134B596822
:10114800C1F3881C4FEA4C11B1EB0C006EEB0E0E8C
:101158004FEA8E1343EA90638101091A63EB0E0389
:10116800DB0043EA5173C90011EB0C0C43F1000397
:10117800990200234FEA8C2041EA9C51FFF720F89E
:10118800D3E7034800E0034808BD00BF0038024029
:1011980000127A000024F400002800F09B8070B54B
:1011A8000D4604464F4B1B6803F007038B4208D2D9
:1011B800CBB24C4A1370136803F007038B4240F01C
:1011C8008B80236813F0020F17D013F0040F04D09C
:1011D800454A936843F4E0539360236813F0080F7B
:1011E80004D0414A936843F4604393603E4A93684D
:1011F80023F0F003A1680B439360236813F0010FF9
:1012080032D06368012B21D09A1E012A25D9364A8B
:10121800126812F0020F61D033498A6822F0030283
:1012280013438B60FFF7C4FB06462F4B9B6803F004
:101238000C036268B3EB820F16D0FFF7B9FB801B73
:1012480041F288339842F0D9032042E0264A1268D6
:1012580012F4003FE0D101203BE0234A126812F06B
:10126800007FD9D1012034E01E4B1B6803F007032F
:10127800AB4207D9EAB21B4B1A701B6803F007038D
:10128800AB422DD1236813F0040F06D0164A936899
:1012980023F4E053E1680B439360236813F0080FCD
:1012A80007D0114A936823F46043216943EAC103D4
:1012B8009360FFF707FF0C4B9B68C3F303130B4ABC
:1012C800D35CD8400A4B18600A4B1868FFF724FB18
:1012D800002070BD012070470120FAE70120F8E7DF
:1012E8000120F6E7003C0240003802403C1A0008A2
:1012F800000000200800002000285AD010B504463D
:10130800436A33B94368B3F5827F05D00023C361CC
:1013180002E00023036143610023A36294F8513083
:10132800002B40D0022384F851302268136823F040
:1013380040031360636803F48273A26802F40442F2
:101348001343E26802F400621343226902F00202C6
:101358001343626902F001021343A26902F40072A6
:101368001343E26902F038021343226A02F0800252
:101378001343A26A02F40052216813430B60638B83
:1013880003F00403626A02F01002216813434B6001
:101398002268D36923F40063D361002060650123C8
:1013A80084F8513010BD84F850302046FFF79EF97C
:1013B800B8E70120704710B4036A046A24F00104F6
:1013C8000462846924F0F00C4CEA021223F00A0348
:1013D8000B438261036210BC704710B4036A046A4D
:1013E80024F010040462846924F4704C4CEA02323C
:1013F80023F0A00343EA01138261036210BC704723
:10140800836823F070030B4343F00703836070473E
:101418007047704770477047704770B50446036857
:10142800DE681D6915F0020F10D016F0020F0DD0FE
:101438006FF002021A610123037703689B6913F0B6
:10144800030F5ED0FFF7E6FF0023237715F0040FA4
:1014580012D016F0040F0FD023686FF004021A613F
:101468000223237723689B6913F4407F4FD02046DB
:10147800FFF7D0FF0023237715F0080F12D016F0DE
:10148800080F0FD023686FF008021A61042323772E
:101498002368DB6913F0030F40D02046FFF7BAFF3B
:1014A8000023237715F0100F12D016F0100F0FD06D
:1014B80023686FF010021A61082323772368DB6919
:1014C80013F4407F31D02046FFF7A4FF0023237791
:1014D80015F0010F02D016F0010F2DD115F0800F75
:1014E80002D016F0800F2FD115F0400F02D016F061
:1014F800400F31D115F0200F02D016F0200F33D154
:1015080070BDFFF786FF2046FFF785FF9CE7204662
:10151800FFF77FFF2046FFF77EFFABE72046FFF788
:1015280078FF2046FFF777FFBAE72046FFF771FFFD
:101538002046FFF770FFC9E723686FF001021A61C0
:101548002046FFF765FFC9E723686FF080021A613C
:10155800204600F07CF9C7E723686FF040021A6163
:101568002046FFF759FFC5E723686FF020021A618C
:10157800204600F06BF9C3E70368344A904212D062
:10158800B0F1804F0FD0A2F57C4290420BD002F50B
:101598008062904207D002F58062904203D002F543
:1015A8007842904203D123F070034A681343274AD4
:1015B80090422AD0B0F1804F27D0A2F57C429042C9
:1015C80023D002F5806290421FD002F580629042DB
:1015D8001BD002F57842904217D002F57052904223
:1015E80013D002F5806290420FD002F580629042DB
:1015F8000BD0A2F59832904207D002F58062904253
:1016080003D002F58062904203D123F44073CA6884
:10161800134323F080034A69134303608B68C36252
:101628000B688362094B984203D003F580639842A4
:1016380001D10B69036301234361036913F0010FAF
:1016480003D0036923F001030361704700000140E0
:1016580040B310B5044690F83D30F3B1022384F846
:101668003D30214651F8040BFFF786FF012384F82B
:10167800463084F83E3084F83F3084F8403084F8AF
:10168800413084F8423084F8433084F8443084F898
:10169800453084F83D30002010BD80F83C30FFF71D
:1016A800F1F8DBE70120704710B4846824F47F4C1C
:1016B80042EA03220A4342EA0C02826010BC7047E5
:1016C80090F83C30012B78D010B50446012380F8FF
:1016D8003C30022380F83D300268936823F47F434E
:1016E80023F0770393600B68602B4CD029D8402BEC
:1016F80054D00CD9502B22D1CA6849680068FFF72A
:101708005AFE50212068FFF77BFE002005E0202BC1
:101718000DD009D9302B0AD00120012384F83D309F
:10172800002384F83C3010BD0BB1102B05D11946AD
:101738002068FFF765FE0020EFE70120EDE70120B4
:10174800EBE7B3F5805F34D0B3F5005F0CD1CB681D
:101758004A6889680068FFF7A7FF2268936843F41E
:10176800804393600020D8E7702B24D1CB684A6867
:1017780089680068FFF798FF2268936843F0770349
:1017880093600020C9E7CA6849680068FFF725FE2A
:1017980060212068FFF734FE0020BEE7CA68496868
:1017A8000068FFF708FE40212068FFF729FE0020A7
:1017B800B3E70020B1E70120AFE70220704700003F
:1017C80090F83C30012B3CD010B4012380F83C3019
:1017D800022380F83D3003685A689C6822F0700C38
:1017E8000A6842EA0C025A600368174A93421AD000
:1017F800B3F1804F17D0A2F57C42934213D002F583
:10180800806293420FD002F5806293420BD002F5BA
:101818007842934207D002F57052934203D0A2F562
:101828009432934204D124F080044A6814439C60A3
:10183800012380F83D30002380F83C30184610BC66
:1018480070470220704700BF000001407047704792
:1018580070B50D4E0D4D761BB61006D0002455F808
:10186800043B01349847A642F9D1094E094D761B2D
:1018780000F0D4F8B61006D0002455F8043B013423
:101888009847A642F9D170BD581A0008581A00089E
:10189800601A0008581A0008830730B548D0541E4B
:1018A800002A3FD0CAB2034601E0013C3AD303F80C
:1018B800012B9D07F9D1032C2DD9CDB245EA052579
:1018C8000F2C45EA054536D9A4F1100222F00F0C79
:1018D80003F1200EE6444FEA121C03F1100242E91C
:1018E800045542E9025510327245F8D10CF1010253
:1018F80014F00C0F03EB021204F00F0C13D0ACF130
:10190800040323F003030433134442F8045B9342B3
:10191800FBD10CF003042CB1CAB21C4403F8012B10
:101928009C42FBD130BD64461346002CF4D1F9E744
:1019380003461446BFE71A46A446E0E7024B13B134
:10194800024800F005B8704700000000651900085B
:10195800002301461A46184600F01AB838B5084B55
:10196800084D5B1B9C1007D0043B1D44013C55F8F7
:1019780004399847002CF9D1BDE8384000F054B834
:10198800641A0008601A0008704700BF704700BF5B
:101998002DE9F047DFF87CA00646DAF80000984603
:1019A8000F469146FFF7F0FF1B4B1B68D3F84841E1
:1019B80024B365681F2D26DC5EB96B1C0235DAF886
:1019C8000000636044F82570FFF7E0FF0020BDE8E1
:1019D800F08704EB85010123C1F88890D4F88821A9
:1019E800AB401A43022EC4F88821C1F80881E4D11B
:1019F800D4F88C211343C4F88C31DEE703F5A674C0
:101A0800C3F84841D5E7DAF80000FFF7BFFF4FF009
:101A1800FF30DCE7380400204C1A0008F8B500BF96
:101A2800F8BC08BC9E467047F8B500BFF8BC08BCB7
:041A38009E4670470F
:101A3C000000000000000000010203040607080972
:041A4C001000002066
:081A5000A8E7FF7F0100000080
:081A580045190008AD0100086A
:041A600089010008F0
:101A64000024F40001000000100000000000000049
:101A740000000000FC02002064030020CC030020CE
:101A84000000000000000000000000000000000052
:101A94000000000000000000000000000000000042
:101AA4000000000000000000000000000000000032
:101AB4000000000000000000000000000000000022
:101AC4000000000000000000000000000000000012
:101AD4000000000000000000000000000000000002
:101AE40000000000000000000000000000000000F2
:101AF40000000000000000000000000000000000E2
:101B040000000000000000000000000000000000D1
:101B140000000000000000000100000000000000C0
:101B24000E33CDAB34126DE6ECDE05000B00000085
:101B340000000000000000000000000000000000A1
:101B44000000000000000000000000000000000091
:101B54000000000000000000000000000000000081
:101B64000000000000000000000000000000000071
:0C1E94000000000000000000FC04002022
:04000005080008CD1A
:00000001FF
